:060000000A128A1110280B
:10000800FE00030E83160313A2000A08A3007F084C
:10001800A4000A128A159E2F0A128A111328831225
:100028000313EC01ED0183010A128A11CD2F83120B
:1000380003132D088039B2003208B7002D08B2002A
:100048003207B3003308BD00AC1F2B282C282D28FD
:100058003D143D0803193128322841283D0A031D63
:10006800362837283F280030AD000030AC0000307B
:10007800AB000030AA00AC1749280030AD000030B2
:10008800AC000030AB000030AA0031088039B20063
:100098003208B7063108B2003207B3003308BC0093
:1000A800B01F5728582859283C143C0803195D28C4
:1000B8005E286D283C0A031D622863286B280030DF
:1000C800B1000030B0000030AF000030AE00B01713
:1000D80075280030B1000030B0000030AF000030AB
:1000E800AE003C08031979287A287F283D08031DAB
:1000F8007E287F2888280030AD000030AC00003012
:10010800AB000030AA007B2B2A08B2003208F000AE
:1001180030080A128A1533270A128A1171088312C5
:100128000313C3007008C2004208B200B301B4014F
:10013800B5013508BB003408BA003308B9003208E5
:10014800B8004308B200B301B401B5013508C100D5
:100158003408C0003308BF003208BE002B08B200C4
:100168003208F0002F080A128A1533270A128A115A
:10017800710883120313C3007008C2004208B2005A
:10018800B301B401B5013208B807330803110318E5
:10019800013E0319D028B907340803110318013E9A
:1001A8000319D728BA07350803110318013E0319A4
:1001B800DE28BB074308B200B301B401B501320819
:1001C800BE07330803110318013E0319EC28BF07C3
:1001D800340803110318013E0319F328C007350832
:1001E80003110318013E0319FA28C1072C08B200AD
:1001F8003208F0002E080A128A1533270A128A11CB
:10020800710883120313C3007008C2004208B200C9
:10021800B301B401B5013208B80733080311031854
:10022800013E03191829B907340803110318013EC0
:1002380003191F29BA07350803110318013E0319CA
:100248002629BB074308B200B301B401B50132083F
:10025800BE07330803110318013E03193429BF07E9
:10026800340803110318013E03193B29C007350858
:1002780003110318013E03194229C1070830B200CF
:100288000310B80DB90DBA0DBB0DB20B44292B08DC
:10029800B2003208F0002E080A128A1533270A1213
:1002A8008A11710883120313C3007008C200420840
:1002B800B2004308B300B401B5013208B8073308E7
:1002C80003110318013E03196A29B90734080311F9
:1002D8000318013E03197129BA07350803110318D9
:1002E800013E03197829BB072A08B2003208F0003A
:1002F8002F080A128A1533270A128A1171088312E5
:100308000313C3007008C2004208B2004308B300D8
:10031800B401B5013208B807330803110318013EC8
:1003280003199729B907340803110318013E031963
:100338009E29BA07350803110318013E0319A52998
:10034800BB070830B2000310B80DB90DBA0DBB0DCC
:10035800B20BA7292A08B2003208F0002E080A12A8
:100368008A1533270A128A11710883120313C300EE
:100378007008C2004208B2004308B300B401B501D6
:100388003208B807330803110318013E0319CD29B1
:10039800B907340803110318013E0319D429BA0711
:1003A800350803110318013E0319DB29BB072B0885
:1003B800B2003208F00030080A128A1533270A12F0
:1003C8008A11710883120313C3007008C20042081F
:1003D800B2004308B300B401B5013208BE073308C0
:1003E80003110318013E0319FA29BF073408031142
:1003F8000318013E0319012AC00735080311031821
:10040800013E0319082AC1072C08B2003208F0007F
:100418002F080A128A1533270A128A1171088312C3
:100428000313C3007008C2004208B2004308B300B7
:10043800B401B5013208BE07330803110318013EA1
:100448000319272ABF07340803110318013E0319AB
:100458002E2AC007350803110318013E0319352A4F
:10046800C1072C08B2003208F00030080A128A15B9
:1004780033270A128A11710883120313C300700804
:10048800C2004208B2004308B300B401B501083005
:100498000310B20DB30DB40DB50DFF3E031D4C2A6C
:1004A8003208BE07330803110318013E03195D2AF9
:1004B800BF07340803110318013E0319642AC00753
:1004C800350803110318013E03196B2AC1073808C0
:1004D800B2003908B3003A08B4003B08B500183038
:1004E8000310B50CB40CB30CB20CFF3E031D742AF8
:1004F8003208BE07330803110318013E0319852A81
:10050800BF07340803110318013E03198C2AC007DA
:10051800350803110318013E0319932AC10708304F
:10052800B2000310B80DB90DBA0DBB0DB20B952A68
:100538003D083C07B200B301B30D3208823EC20049
:1005480033080318013EFF3EC300C72A0130B2003A
:100558000310BE0DBF0DC00DC10DB20BAC2ABB1FE1
:10056800B62AB72AB82A3E140130B2000310B80DD3
:10057800B90DBA0DBB0DB20BBA2AFF30C20703186A
:10058800C30AFF30C307C01FCA2ACB2AAA2ABC0144
:10059800BB1FCF2AD02AEC2AFF303805B200FF3023
:1005A8003905B300FF303A05B4007F303B05B5008C
:1005B80035083404330432040319E32AE42AE72A09
:1005C800BC01BC0AEC2A3E1CEA2AEB2AEC2AE42AE3
:1005D8003C080319F02AF12A222B0130BE0700300B
:1005E80003180130BF07003003180130C00700307E
:1005F80003180130C107411C022B032B222B3E0894
:10060800B2003F08B3004008B4004108B50001300B
:10061800B600350DB50CB40CB30CB20CB60B0D2BE3
:100628003508C1003408C0003308BF003208BE00D6
:100638000130C2070318C30A0030C3074308803AD1
:10064800FF0080307F02031D2B2BFF304202031C6A
:100658002E2B2F2B3A2B7F3083120313C1008030AF
:10066800C0000030BF000030BE006F2B83120313A0
:100678004308803AFF0080307F02031D452B01307C
:1006880042020318482B492B552B003083120313C1
:10069800C1000030C0000030BF000030BE00B7010C
:1006A8006F2B831203134208B2003208BD00FF30DB
:1006B800BE05FF30BF057F30C0050030C1053D1CB9
:1006C800662B672B682BC0173D08B2000310320C4D
:1006D800B3003308C1003708B2003208C10441082A
:1006E800AD004008AC003F08AB003E08AA00080077
:1006F8008312031347088039CC004C08D4004708FC
:10070800CC004C07CD004D08D600C61F8C2B8D2B76
:100718008E2B561456080319922B932BA32B560A8B
:10072800031D972B982BA02B0030C7000030C60064
:100738000030C5000030C400C617C701AB2B00301D
:10074800C7000030C6000030C5000030C4004B08A8
:100758008039CC004C08D500550854060319B52B30
:10076800B62BB72B54174B08CC004C07CD004D08BF
:10077800D500CA1FC02BC12BC22B5514550803190D
:10078800C62BC72BD72B550A031DCB2BCC2BD42B11
:100798000030CB000030CA000030C9000030C8006B
:1007A800CA17CB01DF2B0030CB000030CA00003065
:1007B800C9000030C800560855020318E42BE52B81
:1007C800292C541FE82BE92BED2B8030CC004C084A
:1007D800D4065608CC004C08D7005508CC004C0865
:1007E800D6005708CC004C08D5004408CC004C086B
:1007F800D7004808CC004C08C4005708CC004C0867
:10080800C8004508CC004C08D7004908CC004C0863
:10081800C5005708CC004C08C9004608CC004C0855
:10082800D7004A08CC004C08C6005708CC004C0832
:10083800CA004708CC004C08D7004B08CC004C082D
:10084800C7005708CC004C08CB00D7015508CC008E
:10085800CD014D08CF0056084C02CE00031CCF0333
:100868004F08803AFF0080307F02031D3D2C1A306C
:100878004E02031C402C412C7E2C83120313470884
:10088800460445044404031D4A2C4C2C01304D2CCD
:100898000030CC004C08D7000030C7000030C6003C
:1008A8000030C5000030C4005508CC004C08D60004
:1008B800862C571C602C612C6A2C5708CC0003101E
:1008C8004C0C0138CD004D08D7006C2C0310D70C08
:1008D800441C6F2C702C712CD7170130CC00470D9D
:1008E800C70CC60CC50CC40CCC0B732C0130CC0047
:1008F8004C08D6078312031355085602031C852C8F
:10090800862C5D2C541B892C8A2CD52C5608031D4B
:100918008E2C8F2C982C0030C7000030C600003079
:10092800C5000030C400032E4808C4074908031155
:100938000318013E0319A12CC5074A08031103181F
:10094800013E0319A82CC6074B0803110318013EE2
:100958000319AF2CC707471CB22CB32C892D571C81
:10096800B62CB72CC02C5708CC0003104C0C0138FF
:10097800CD004D08D700C22C0310D70C441CC52C41
:10098800C62CC72CD7170130CC00470DC70CC60C96
:10099800C50CC40CCC0BC92C0130CC004C08D607B4
:1009A800892D4708803AFF004B08803A7F02031DD3
:1009B800E72C4A084602031DE72C49084502031D97
:1009C800E72C480844020318EA2CEB2C432DFF308F
:1009D800CC00FF30CD00FF30CE00FF30CF004808FC
:1009E800D0004908D1004A08D2004B08D300440877
:1009F800D0024508031C450F022D032DD1024608DD
:100A0800031C460F082D092DD2024708031C470F67
:100A18000E2D0F2DD3025008CC0751080318510F83
:100A2800162D172DCD0752080318520F1C2D1D2DFA
:100A3800CE0753080318530ACF074F08C7004E08BC
:100A4800C6004D08C5004C08C4008030CC004C08D6
:100A5800D406D709D70A5708031D332D342D512D35
:100A68000130C407003003180130C50700300318EF
:100A78000130C607003003180130C707512D480858
:100A8800C4024908031C490FC5024A08031C4A0F3F
:100A9800C6024B08031C4B0FC7024708460445040F
:100AA8004404031D582D592D852D5708031D5D2D10
:100AB8005E2D852D0030C7000030C6000030C5000F
:100AC8000030C400032E0130CC000310C40DC50D46
:100AD800C60DC70DCC0B692DD71F732D742D752D21
:100AE8004414571C782D792D7C2D0314D70D7E2D99
:100AF8000310D70D56080319822D832D852D01303B
:100B0800D602C61F882D892D672DD501D71F8D2D9B
:100B18008E2D9C2D57087F390319932D942D972DD1
:100B2800D501D50A9C2D441C9A2D9B2D9C2D942DC6
:100B380055080319A02DA12DD52D0130C40700306B
:100B480003180130C507003003180130C60700300C
:100B580003180130C707471CB22DB32DD52D440803
:100B6800CC004508CD004608CE004708CF0001302C
:100B7800D0004F0DCF0CCE0CCD0CCC0CD00BBD2D16
:100B88004F08C7004E08C6004D08C5004C08C400F1
:100B9800560A0319D02DD12DD52D0130CC004C0883
:100BA800D607560A0319D92DDA2DDF2D5608031D4D
:100BB800DE2DDF2DED2D0030C7000030C6000030DF
:100BC800C5000030C4005608031DEB2DEC2DED2D9B
:100BD800D401561CF02DF12DF32DC617F72D7F30BB
:100BE800CC004C08C6055608CC0003104C0CCD00B0
:100BF8004D08C700D41F012E022E032EC717080068
:100C080083120313A400240803190B2E0C2E202E84
:100C1800FB1F0F2E102E202E7809A6007909A70099
:100C28007A09A8007B09A900A60A0319A70A0319CB
:100C3800A80A0319A90A282E7B08A9007A08A8007F
:100C48007908A7007808A6007B087A047904780454
:100C5800031D2F2E302E392E0030FB000030FA00F5
:100C68000030F9000030F800BF2E9630A0002008B0
:100C7800A5004B2E0130A0002008A5070130031065
:100C8800A90CA80CA70CA60CFF3E031D432EFE3092
:100C98002905031D502E512E3E2E6D2E0130A00029
:100CA8002008A5070130A607003003180130A70760
:100CB800003003180130A807003003180130A907D5
:100CC80001300310A90CA80CA70CA60CFF3E031DAD
:100CD800652EFF302905031D722E732E522E7F2E8E
:100CE8000130A5020130A0000310A60DA70DA80D24
:100CF800A90DA00B782EA81B822E832E892E0230D8
:100D080025020318882E892E742E25188C2E8D2ED8
:100D1800952EFF30A605FF30A7057F30A805FF30C8
:100D2800A9050310A50C2508A000A101A201A30193
:100D380018300310A00DA10DA20DA30DFF3E031D39
:100D48009D2E2008A6042108A7042208A804230829
:100D5800A90424080319B12EB22EB72EFB1FB52EF5
:100D6800B62EB72EA9172908FB002808FA0027086D
:100D7800F9002608F800080083120313EB00630843
:100D8800F8006408F900FA01FB0100300A128A1120
:100D980004260A128A117B0883120313CB007A08EF
:100DA800CA007908C9007808C80063086502F2001B
:100DB8006408031C640A6602F30061086202F0001A
:100DC800F101031CF1030A128A155A270A128A1123
:100DD800700883120313E7007108E800E901EA01CB
:100DE8006A08FB006908FA006808F9006708F80053
:100DF80000300A128A1104260A128A117B0883120B
:100E08000313B1007A08B0007908AF007808AE0083
:100E180061086B02F800F901031CF903FA01F91BD8
:100E2800FA037A08FB0001300A128A1104260A1212
:100E38008A117B0883120313AD007A08AC00790885
:100E4800AB007808AA000A128A111B200A128A111C
:100E5800831203132D08C7002C08C6002B08C500F1
:100E68002A08C4000A128A117C230A128A118312E2
:100E780003134708DB004608DA004508D900440890
:100E8800D8000A128A1151270A128A1183120313F1
:100E98005908E2005808E100080003108312031300
:100EA8005A0D5B0DDC005C08FD007D08031D5D2FFD
:100EB8005E2F672F0030DB000030DA000030D900E9
:100EC8000030D800CC2F5808DC005908DD005A083B
:100ED800DE005B08DF001F300310DF0CDE0CDD0CCA
:100EE800DC0CFF3E031D702F5C08E0006008FC006E
:100EF800DA17FF30D805FF30D905FF30DA050030A2
:100F0800DB059630FD02FD1F8A2F8B2FA52F7D084C
:100F1800803A973E0318912F922F932F5E2F01301E
:100F28000310DB0CDA0CD90CD80CFF3E031D942FF0
:100F38000130DC005C08FD07031DA32FA42F932FAD
:100F4800BC2F20307D02031CAA2FAB2FB72F5E2F9A
:100F58000130DC000310D80DD90DDA0DDB0DDC0BE8
:100F6800AE2F0130FD027D08031DBB2FBC2FAC2F17
:100F78007C080319C02FC12FCC2FD809D909DA0949
:100F8800DB09D80A0319D90A0319DA0A0319DB0A93
:100F980008000A128A1507270A128A110A128A15E6
:100FA800E1260A128A110A128A1521270A128A11C1
:100FB8000A128A15E9260A128A110A128A15F226D5
:100FC8000A128A110A128A1514270A128A110A1299
:100FD8008A15FB260A128A11831603130711831236
:100FE8009F18F72FF82FF32F9F14F32F0A128A1147
:020FF8001028BF
:101DC200831603130F088F3930388F000F14080061
:101DD2008B170B17831603130C17831203130C13A1
:101DE20008008312031397018316031307159B3010
:101DF20092000800831203138C1003309204121510
:101E02008C1C042F052F012F8C1008000130831623
:101E1200031788008901013083160313850083129A
:101E22000313850108003F30831203139705170837
:101E3200F0390C38970027309500CF30970508000D
:101E4200831603139F131F129F12831203131F087B
:101E52003F3940389F00C3309F051F14302F312F68
:101E620000000800F800F401F5017008F200F30127
:101E72007208F6007308F700781C402F412F472F95
:101E82007608F4070318F50A7708F50701300310FE
:101E9200F60DF70DFF3E031D482F0310F80C7808CE
:101EA200031D542F552F3D2F7508F1007408F000C3
:101EB2000800F501F601700871040319612F622F01
:101EC200992FF701F70A702F01300310F00DF10D71
:101ED200FF3E031D662F0130F4007408F707F11F5F
:101EE200732F742F652F01300310F50DF60DFF3E91
:101EF200031D752F71087302031D812F7008720272
:101F0200031C842F852F8C2F7008F2027108031C8A
:101F1200F303F302751401300310F10CF00CFF3ED1
:101F2200031D8D2F0130F702031D982F992F742F57
:101F32007608F1007508F0000800831203130C1FE5
:101F4200A32FA42FF52F1F0C83160313A000200C20
:101F52000F39003A031DAE2FAF2FF32F8312031355
:101F6200E101FF3083160313A0002008831203133C
:101F7200E2001E30E3000030E4003F30E5000030B4
:101F8200E6001E080A128A11C0260A128A15831256
:101F920003136208ED006108EC006D088316031359
:101FA200A100831203136C0883160313A00003100D
:101FB200A10CA00C0310A10CA00C20088312031387
:101FC20095006C08033983160313A000A00E831238
:101FD20003131708831603132006CF392006831232
:101FE2000313970083120C13831603132408FF00B4
:0E1FF20023088A00220E8300FE0E7E0E0900D8
:08400000FF3FFF3FFF3FFF3FC0
:04400E00D420FF3F7C
:00000001FF
